:1000000053C042C26CC06BC06AC069C068C067C0E0
:1000100066C065C064C003CA62C061C060C05FC022
:100020005EC05DC05CC008000000BE922449123E64
:10003000ABAAAA2ABECDCCCC4C3E00000080BEAB01
:10004000AAAAAA3E00000000BF000000803F0000F6
:10005000000000084178D3BB4387D1133D190E3C03
:10006000C3BD4282AD2B3E68EC8276BED98FE1A93A
:100070003E4C80EFFFBE01C4FF7F3F000000000048
:1000800007634236B79BD8A71A39685618AEBAAB81
:10009000558C1D3CB7CC5763BD6DEDFD753EF61715
:1000A0007231BF000000803F11241FBECFE5D4E0B5
:1000B000DEBFCDBF11E0A0E6B0E0EAE8FEE102C09D
:1000C00005900D92A03CB107D9F713E0A0ECB1E088
:1000D00001C01D92A830B107E1F74ED184CE90CF78
:1000E00014BA15BA16B880E687B986E086B9379A89
:1000F0000895AF92BF92CF92DF92EF92FF920F934B
:100100001F9397B1907F97B997B18F7021E030E03E
:1001100002C0220F331F8A95E2F7922B97B9369AC5
:10012000369BFECF349A25B1A62FB0E0FD01EE0F2D
:10013000FF1FE555FF4F80819181820F911D8F3FF9
:10014000910519F014F06FEF0DC025B180819181F8
:10015000820F911D97FF02C060E004C065B18081ED
:100160009181680FAA0FBB1FA555BF4FED90FC9062
:1001700070E080E090E005DB5B016C010027F7FC9C
:100180000095102FC801B701FEDA20E030E04FE7FC
:1001900053E4F0D99B01AC0160E070E08FE793E499
:1001A00056DA9B01AC01C601B501ECDBA4DCBDDA7B
:1001B000DC01CB011F910F91FF90EF90DF90CF906A
:1001C000BF90AF9008950F931F9380917D0184316C
:1001D00010F060E004C084E180937D0161E040E0C4
:1001E00050E004E111E0FA01E555FF4F808D8531C3
:1001F00010F0008F61E0FA01E555FF4F808D8823F4
:1002000011F4108F61E0CA0185559F4FDC01AF5A90
:10021000BF4F2C91FC01E25BFF4F8081281718F43F
:1002200080818C9361E0FA01E555FF4FA38DB38D7A
:10023000738D838D20E030E08F3F11F421E030E0BA
:1002400080E090E0723011F481E090E0282B392BAF
:1002500080E0AA2309F481E090E0B13009F491E054
:10026000892B90E0282B392B232B29F4FA01E55513
:10027000FF4F138E61E04F5F5F4F4330510509F030
:10028000B2CF862F1F910F9108956F927F928F9218
:100290009F92AF92BF92CF92DF92EF92FF920F9315
:1002A0001F93DF93CF930F92CDB7DEB74B015A0167
:1002B0007C0100E010E03E010894611C711C17C035
:1002C0006401C00ED11EC301B60141E050E08DDDD6
:1002D000F70190818981981729F0C701B60141E0A3
:1002E00050E09BDD0F5F1F4F0894E11CF11C0A15C5
:1002F0001B0530F30F90CF91DF911F910F91FF906D
:10030000EF90DF90CF90BF90AF909F908F907F90B5
:100310006F9008958BEA90E060E070E047ED50E068
:10032000B4DF08958BEA90E060E070E047ED50E0C4
:100330005CDD49DF8111EEDF089580E690E00BD7A8
:10034000829B07C08CE890E006D7E4DF8299FECF5D
:1003500008958FE990E0FFD6E5DF0895E5D605D74B
:10036000ECDF1ED2BDDE87D081E08093C00178949F
:1003700082EA90E0F0D60895AF92BF92CF92DF92DA
:10038000EF92FF920F931F93CF93DF93E7DFC8ECB9
:10039000D0E007C088EE93E0FE013197F1F70197B6
:1003A000D9F78091D9018823A9F700E010E0F02E59
:1003B000F801E555FF4FE153FF4F8081EF5CF040BE
:1003C000882321F0E453FF4F808103C08681602F92
:1003D00090DE90E09093DB018093DA018091DA0166
:1003E0009091DB016F2D54D50F5F1F4F0330110526
:1003F000F1F660917D0170E080E090E0C2D99B0150
:10040000AC0160E070E08AE794E421D95B016C0103
:1004100020E030E04AEF54E4B5DA7B018C0120E0C3
:1004200030E040E85FE30FD988231CF461E070E01E
:100430001EC0C801B70120E03FEF4FE757E454DA90
:10044000181694F4C601B50120E030E040E251E412
:1004500099DA6BD905C0CE010197F1F76150704070
:1004600061157105C1F79DCFC801B7015ED9CB01F8
:100470000197F1F796CF8A98929885B7836085BFE8
:100480008BB780648BBF08951F920F920FB60F92A7
:1004900011242F938F939F938091C001813061F439
:1004A0008299FECF29E088E190E00FB6F894A895F4
:1004B00081BD0FBE21BDFFCF9F918F912F910F90D6
:1004C0000FBE0F901F901895AC012091CF01309175
:1004D000D001AA27BB27A81BB90BE0E002C0EF5F41
:1004E0009B01B9016A0F7B1FCB01840F951F8417F5
:1004F0009507A8F73093D0012093CF018091D201C6
:10050000882311F4EE23C1F0EA3014F480E307C02D
:100510008091D101882311F487E501C087E38E0F14
:10052000E091C101F091C2018193F093C201E09387
:10053000C10181E08093D20108954F925F926F9242
:100540007F928F929F92AF92BF92CF92DF92EF9263
:10055000FF920F931F93DF93CF93CDB7DEB723E1C5
:10056000E22EF12CEC0EFD1EF701A190B1907F015F
:1005700093EC892E91E0992E552453948DE2482EC8
:1005800034010894611C711CF5C00894A11CB11CB5
:10059000853211F0DCD5EEC0F50191915F01903309
:1005A00011F0CC2404C091915F01CC24C394892F15
:1005B00080538A3010F0DD240FC0DD2409C08D2D5A
:1005C000880F880FD80EDD0CD20EF50191915F01D6
:1005D000292F20532A3098F39092C2018092C101B2
:1005E0001092D201993609F19A36B4F4933609F48F
:1005F0007FC094366CF4983509F45AC099350CF0E4
:1006000054C0992309F4BBC0953209F04EC085C08F
:10061000943609F04AC009C0953739F0983709F483
:1006200047C0933709F041C070C0F7018081418114
:100630008093CF014093D001943691F4282F342F2A
:1006400037FF0EC088279927821B930B9093D00108
:100650008093CF014092C3017092C2016092C101A8
:1006600080E197E231DF88EE93E02EDF84E690E0D0
:100670002BDF8AE090E028DF9091CF019A3094F14F
:100680008091D101882391F187E322E030E0E20EEE
:10069000F31E890FE091C101F091C2018193F093A3
:1006A000C201E093C1015092D20103EC11E03CC0C1
:1006B00010E0983509F411E01093D101F701808121
:1006C00091819093D0018093CF0180E090E1FCDE96
:1006D00080E091E0F9DE80E190E0F6DE9091CF01DC
:1006E0009A3014F480E3D1CF112371F687E5CDCF92
:1006F000F70180818093C3017092C2016092C101B1
:1007000022E030E0E20EF31E0EC0F70100811181FD
:1007100022E030E0E20EF31E07C09093C301709216
:10072000C2016092C1018401E091C101F091C20156
:1007300010821093C2010093C101F80101C0DA9444
:100740008191882311F01D14D4F3F093C201E0933A
:10075000C10107C0CC2011F480E201C080E3F7D4CE
:10076000DA941D14BCF301C0F2D4F80181918F0119
:100770008823D1F7F5018081882309F006CFCF9136
:10078000DF911F910F91FF90EF90DF90CF90BF907E
:10079000AF909F908F907F906F905F904F90089553
:1007A000AF92BF92CF92DF92EF92FF920F931F937F
:1007B000CF93DF9387B38E6087BB89B78F7389BF71
:1007C00081EA8FBD89E08EBD89E685BD80917F017C
:1007D00083BD63B570E080E090E0D3D76093EF0213
:1007E0007093F0028093F1029093F2026093DC0127
:1007F0007093DD018093DE019093DF018091800191
:1008000090E099BD88BD68B579B580E090E0B9D732
:100810006093F3027093F4028093F5029093F602D2
:100820006093E0017093E1018093E2019093E30112
:100830008091810190E09BBD8ABD6AB57BB580E067
:1008400090E09FD76093F7027093F8028093F902CB
:100850009093FA026093E4017093E5018093E601BE
:100860009093E701C0E0D0E094E1A92EB12CCE0135
:1008700064E170E0F4DA9B01FB01E158FE4FC080B7
:10088000CE0164E170E0EBDA2A9D80012B9D100D12
:100890003A9D100D1124080F191F000F111F000F92
:1008A000111F01501E4FDD24EE24FF24C701B601A5
:1008B00068D7F80160837183828393832196CC3358
:1008C000D105A9F620E030E064E640ED57E005C030
:1008D000CA010197F1F72F5F3F4F80917E01869FFC
:1008E000C00111242817390798F3DF91CF911F9188
:1008F0000F91FF90EF90DF90CF90BF90AF90089551
:10090000AF92BF92CF92DF92EF92FF920F931F931D
:10091000CF93DF9370E08B01000F111F000F111FA9
:10092000080F191FF801C080D180E280F3802BEA04
:10093000A22E20E0B22EA60EB71EE501CF5ADF4F41
:10094000688170E0882777FD8095982F1CD79B01E0
:10095000AC01C701B601C8D718168CF0E501C25B1F
:10096000DF4F688170E0882777FD8095982F0BD73F
:100970009B01AC01C701B60166D6882354F4688197
:1009800070E080E090E0FDD6F8016083718382839F
:100990009383DF91CF911F910F91FF90EF90DF90A4
:1009A000CF90BF90AF9008956F927F928F929F9259
:1009B000AF92BF92CF92DF92EF92FF920F931F936D
:1009C00020917D01E0907D01E82FF0E0EE0FFF1F08
:1009D000EE0FFF1FE954FF4FA080B180C280D3808B
:1009E00030E040E050E0CA01B901CBD69B01AC0138
:1009F00060E070E08FE793E42AD63B014C01FF24CE
:100A000000E010E0C801B701BCD67B018C01C60133
:100A1000B50120E030E040E85FE3ACD59B01AC01DC
:100A2000C801B70114D69B01AC01C401B301AAD718
:100A30006093EB017093EC018093ED019093EE01D4
:100A40001F910F91FF90EF90DF90CF90BF90AF90EC
:100A50009F908F907F906F900895BF92CF92DF927A
:100A6000EF92FF920F931F93CF93DF936B017C0163
:100A7000B22ED8012C91822F6B2DE5D9E92FF0E011
:100A8000EE0FFF1FEE0FFF1FE40FF51FC082D18294
:100A9000E282F3822F5F2C93EA010F2EF0E0EF2E1B
:100AA000F0E0FF2EF0E00F2FF0E01F2FF02DCC2410
:100AB0000AC0C801B70129913991499159915AD574
:100AC0007B018C01C394CB14A0F36B2D70E08827BD
:100AD00077FD8095982F57D69B01AC01C801B701CF
:100AE000B6D5DF91CF911F910F91FF90EF90DF90DE
:100AF000CF90BF9008955F926F927F928F929F9256
:100B0000AF92BF92CF92DF92EF92FF920F931F931B
:100B1000CF93DF93562EC62FD0E08E01000F111F0A
:100B2000000F111F04521E4FAA2797FDA095BA2F40
:100B3000BC01CD0128D69B01AC01F8016081718117
:100B40008281938116D53B014C01852D2DDFC40197
:100B5000B301A401930116D7F2D75B016C01E090B9
:100B6000EB01F090EC010091ED011091EE01A80174
:100B70009701BAD6181664F4C601B501A801970109
:100B800066D59B01AC01C401B30161D53B014C01A9
:100B90008E01000F111F000F111F04521E4FF8018C
:100BA0006081718182819381A4019301E2D49B01D0
:100BB000AC01F8012083318342835383052D10E07B
:100BC000C555DF4F288D40E550E0FA010E9FA0018A
:100BD0000F9F500D1E9F500D112441505E4F085124
:100BE0001E4F3BDFDF91CF911F910F91FF90EF9050
:100BF000DF90CF90BF90AF909F908F907F906F903D
:100C00005F9008956F927F928F929F92AF92BF9262
:100C1000CF92DF92EF92FF920F931F93CF93DF93C8
:100C2000EC01E62FF0E0EE0FFF1FEE0FFF1FDF01DC
:100C3000A55FBE4F6D907D908D909C901397ED9029
:100C4000FD900D911C91E150FF4FA080B180C280BA
:100C5000D38068817981882777FD8095982F93D5F7
:100C6000A801970186D4A60195018CD69B01AC0101
:100C7000C401B3017FD43FD753D5798368836F3FD5
:100C8000710529F024F08FEF90E0998388838881A3
:100C9000998197FF02C019821882DF91CF911F912D
:100CA0000F91FF90EF90DF90CF90BF90AF909F900B
:100CB0008F907F906F9008955F926F927F928F9246
:100CC0009F92AF92BF92CF92DF92EF92FF920F93DB
:100CD0001F93CF93DF93EC01E62FF0E0E555FF4F34
:100CE00081858823B1F1DF01A25BBF4FAC90EF5A41
:100CF000FF4FE0805C9068817981882777FD80953F
:100D0000982F41D520E030E04FE753E4A0D43B01D9
:100D10004C01FF24E518F1080027F7FC0095102F7F
:100D2000C801B70130D59B01AC01C401B3012AD67B
:100D3000E2D67B018C01BB24CC24B7FCC094DC2C14
:100D4000C601B50120D5A801970114D4E9D479834F
:100D50006883DF91CF911F910F91FF90EF90DF900B
:100D6000CF90BF90AF909F908F907F906F905F904B
:100D70000895BF92CF92DF92EF92FF920F931F934D
:100D8000CF93DF93B62EC62FD0E0CC0FDD1FCC0F54
:100D9000DD1FC80FD91FE880F9800A811B81C801B7
:100DA000B701A80197010BD78823E9F4CC24DD24EF
:100DB000E89417F9C801B7012FEF3FEF4FE75FE75E
:100DC000FED6882349F4C801B7012FEF3FEF4FE764
:100DD0005FE739D418161CF081E0C82ED12C81E0D1
:100DE000C816D10481F0EB2DF0E0EE0FFF1FEE0FDF
:100DF000FF1FE151FE4F80819181A281B3818883E1
:100E00009983AA83BB83BB2029F011C0C901019734
:100E1000F1F702C028EC30E002B401FCF7CF6881A2
:100E200079818A819B8167D680D463BD17C081E0B8
:100E3000B81649F4688179818A819B815CD675D422
:100E400079BD68BD0BC082E0B81641F46881798134
:100E50008A819B8150D669D47BBD6ABDEB2DF0E0C1
:100E6000EE0FFF1FEE0FFF1FE151FE4F88819981AA
:100E7000AA81BB8180839183A283B383DF91CF91C9
:100E80001F910F91FF90EF90DF90CF90BF9008954A
:100E90002F923F924F925F926F927F928F929F928A
:100EA000AF92BF92CF92DF92EF92FF920F931F9378
:100EB000DF93CF9300D00F92CDB7DEB79A838983AB
:100EC0006B838E010F5F1F4FC8019CDEC8016B81D1
:100ED000F3DE89819A816B810EDE1B012C01609308
:100EE000FB017093FC018093FD019093FE018B81C7
:100EF000882E9924F401E555FF4F838D823009F443
:100F000052C08F3F09F48CC03401660C771C660C0C
:100F1000771C813051F0EFEEF2E06E0E7F1EF30190
:100F20002082318242825382E1C0F401EE0FFF1F22
:100F3000EE0FFF1FE95EFE4FA080B180C280D3801C
:100F4000F401EE0FFF1FEE0FFF1FED5DFE4F20813E
:100F5000318142815381880C991C880C991CF401C1
:100F6000E15DFE4FE080F18002811381C201B10199
:100F70006ED3A8019701FED29B01AC01C601B50159
:100F80006CD57B018C018BE391E0880E991EF401F6
:100F900020813181428153818FEE92E0680E791E6B
:100FA000C801B7019DC0F401EE0FFF1FEE0FFF1F38
:100FB000ED5AFE4F2081318142815381F401EE0FC1
:100FC000FF1FEE0FFF1FE15AFE4FE080F18002810C
:100FD0001381C201B1013BD3A8019701CBD28DD4BB
:100FE000F401EE0FFF1FEE0FFF1FE95BFE4F2081A4
:100FF000318142815381880C991C880C991CF40121
:10100000E559FE4FE080F18002811381EFEEF2E0BE
:101010008E0E9F1EB7D4A8019701ACD2F40162C016
:10102000C201B10120E030E048E851E410D378D3A8
:10103000D40144E0AA0FBB1F4A95E1F7A555BF4F65
:10104000FD01E60FF71F068DFB013196EA0FFB1F2E
:10105000E68C3401660C771C660C771C6F307105CA
:101060005CF09D966C918FEE92E0680E791E70E0B8
:1010700080E090E086D335C010E08FEE92E0680EFD
:10108000791EB801882777FD8095982F7CD35B0166
:101090006C016E2D70E0601B710B882777FD8095C9
:1010A000982F71D320E030E048E851E4D0D27B01A2
:1010B0008C01C201B10139D3DC01CB0161E1C3D69E
:1010C000692F70E0882777FD8095982F5CD39B016E
:1010D000AC01C801B70156D49B01AC01C601B501F2
:1010E00049D2F30160837183828393838FEE92E010
:1010F0006B8106DC8FEE92E06B813BDE0F900F90F0
:101100000F90CF91DF911F910F91FF90EF90DF90A3
:10111000CF90BF90AF909F908F907F906F905F9097
:101120004F903F902F9008958898899A82B383605A
:1011300082BB1AB8579A86E880BD10BC89E189B98C
:101140008AB188618AB981E08093060308955D9B26
:10115000FECF8CB90895FC0104C05D9BFECF8CB915
:10116000319680818823C9F7089582E891E0F3DF02
:1011700083EB91E0F0DF8AE991E0EDDF0895DC0197
:10118000FC0120E091E0818128279F5F3196993012
:10119000D1F790E019968C91281709F491E0892FE6
:1011A0000895CF92DF92FF920F931F93CF93DF9317
:1011B000DC0118968C91189780930703FD0191E04C
:1011C00020E0818128279F5F31969930D1F71996C9
:1011D0008C911997281711F082E019C111964C9142
:1011E0001197942F80E02C9130E0282B392B8DE43F
:1011F0002E33380709F4E6C08DE42F333807B4F4F2
:1012000087E42E33380709F476C087E42F33380794
:1012100024F42E533344F9F420C088E42E333807E5
:1012200009F45BC02E533C44B1F4CAC083E52E33AD
:10123000380799F083E52F33380724F42E533245CD
:1012400051F448C084E52E33380709F44AC02E53C0
:10125000364509F498C081E0DAC012968D919C91D0
:1012600013978C010E7F117016950795433511F475
:1012700009521F4F6C01CD2CDD24C69480FD0AC09D
:10128000CD010496A6014530510510F044E050E030
:10129000B801BBC05D9BFECF8EE38CB9FF24C0E0DC
:1012A000D0E009C0CE01800F911FAFD55D9BFECF6E
:1012B000F8268CB92196CC15DD05A0F39091070393
:1012C000809107035D9BFECF8CB95D9BFECFF92615
:1012D000FCB855C01092D90199C081E08093D90122
:1012E00095C029E088E190E00FB6F894A89581BDFB
:1012F0000FBE21BDFFCF5D9BFECF8EE38CB95D9B02
:10130000FECF84E98CB95D9BFECF83E08CB95D9BF9
:10131000FECF83E08CB914E9C0E0D0E0FE01E555D2
:10132000FF4F86816C2FE5D65D9BFECF8CB91827C9
:101330002196C330D10591F7CFEED2E06881798153
:101340008A819B81F2D15D9BFECF6CB916272496D2
:1013500082E0CB3FD80791F78091D9015D9BFECF0A
:101360008CB92091D90180910703909107035D9B6F
:10137000FECF9CB95D9BFECF822781278CB98DE97A
:1013800091E0E9DE43C05D9BFECF8EE38CB9E3EBD9
:10139000F1E090E080815D9BFECF8CB9982731967B
:1013A00081E0EF3BF807B1F7209107038091070335
:1013B0005D9BFECF8CB95D9BFECF92279CB9DFCFA2
:1013C000B1D724C012968C91129780937A0115960A
:1013D0008C9115978093770113968C911397809336
:1013E0007B0116968C9116978093780114968C91B8
:1013F000149780937C0117968C918093790187E7ED
:1014000091E06CEC70E046E050E03FD780E0DF9187
:10141000CF911F910F91FF90DF90CF9008951F9271
:101420000F920FB60F9211241F932F933F934F9358
:101430005F936F937F938F939F93AF93BF93EF933C
:10144000FF931CB1412F50E060E070E08091D40127
:101450009091D501A091D601B091D701BA2FA92FB3
:10146000982F8827482B592B6A2B7B2B4093D4012C
:101470005093D5016093D6017093D7018091D30129
:101480008B30B0F020E030E0F9012F5F3F4FD90101
:10149000A550BD4F8C91E550FD4F80832A3031051A
:1014A00099F7E091D301F0E0E650FD4F10830AC0B8
:1014B0008091D301E82FF0E0E550FD4F10838F5F5E
:1014C0008093D3018091FB028E3391F580910503C7
:1014D0008C3371F58BEF92E064DE882361F45D9BC1
:1014E000FECF8EE38CB9809107035D9BFECF8CB954
:1014F00081EA91E00DC0813069F45D9BFECF8EE3FF
:101500008CB9809107035D9BFECF8CB987EA91E08F
:1015100022DE17C08230A9F45D9BFECF8EE38CB92A
:10152000809107035D9BFECF8CB98DEA91E0F0CFEF
:10153000411551056105710551F48091FB028E330F
:1015400031F01092FB02109205031092D301FF912B
:10155000EF91BF91AF919F918F917F916F915F912B
:101560004F913F912F911F910F900FBE0F901F90A1
:1015700018955058BB27AA270ED07BC16CD130F0EC
:1015800071D120F031F49F3F11F41EF461C10EF4CB
:10159000E095E7FB57C1E92F7DD180F3BA176207C9
:1015A00073078407950718F099F4C6F595C10EF4F2
:1015B000E0950B2EBA2FA02D062E622F202D072E80
:1015C000732F302D082E842F402D092E952F502D4E
:1015D000FF27591B99F0593F50F4503E68F11A16F5
:1015E000F040A22F232F342F4427585FF3CF469586
:1015F00037952795A795F0405395C9F77EF41F16A8
:10160000BA0B620B730B840BBAF09150A1F0FF0F71
:10161000BB1F661F771F881FC2F70EC0BA0F621F5D
:10162000731F841F48F4879577956795B795F7954D
:101630009E3F08F0AECF9395880F08F09927EE0FE4
:10164000979587950895DAD008F481E008950CD035
:1016500010C108D140F0FFD030F021F45F3F19F005
:10166000F1C051113AC1F4C015D198F39923C9F3CF
:101670005523B1F3951B550BBB27AA276217730798
:10168000840738F09F5F5F4F220F331F441FAA1F4C
:10169000A9F334D00E2E3AF0E0E831D0915050400A
:1016A000E695001CCAF72AD0FE2F28D0660F771FB8
:1016B000881FBB1F261737074807AB07B0E809F09C
:1016C000BB0B802D6E2F7F2FFF2793585F4F2AF083
:1016D0009E3F510568F0B6C000C15F3FECF3983EF5
:1016E000DCF3869577956795B795F7959F5FC9F772
:1016F000880F911D9695879597F90895E1E0660FFB
:10170000771F881FBB1F621773078407BA0720F073
:10171000621B730B840BBA0BEE1F88F7E0950895DC
:1017200004D06894B111D9C00895BCD088F09F57F7
:1017300090F0B92F9927B751A0F0D1F0660F771F1D
:10174000881F991F1AF0BA95C9F712C0B13081F0FD
:10175000C3D0B1E00895C0C0672F782F8827B85F45
:1017600039F0B93FCCF3869577956795B395D9F75E
:101770003EF490958095709561957F4F8F4F9F4F68
:101780000895E89409C097FB3EF490958095709574
:1017900061957F4F8F4F9F4F9923A9F0F92F96E9BD
:1017A000BB279395F695879577956795B795F11132
:1017B000F8CFFAF4BB0F11F460FF1BC06F5F7F4FCF
:1017C0008F4F9F4F16C0882311F096E911C07723E1
:1017D00021F09EE8872F762F05C0662371F096E8EA
:1017E000862F70E060E02AF09A95660F771F881FB9
:1017F000DAF7880F9695879597F90895990F00085D
:10180000550FAA0BE0E8FEEF16161706E807F907D2
:10181000C0F012161306E407F50798F0621B730B6D
:10182000840B950B39F40A2661F0232B242B252BEE
:1018300021F408950A2609F4A140A6958FEF811D91
:10184000811D089597F99F6780E870E060E0089532
:101850009FEF80EC089500240A94161617061806C8
:101860000906089500240A941216130614060506A4
:101870000895092E0394000C11F4882352F0BB0F35
:1018800040F4BF2B11F460FF04C06F5F7F4F8F4F98
:101890009F4F089557FD9058440F551F59F05F3FD3
:1018A00071F04795880F97FB991F61F09F3F79F082
:1018B00087950895121613061406551FF2CF469504
:1018C000F1DF08C0161617061806991FF1CF869586
:1018D0007105610508940895E894BB27662777276A
:1018E000862F972F97F9089589DF08F48FEF0895D1
:1018F0000EF0B5C1ADCF6894A5CFD4DFC8F399235E
:10190000D1F3C6F3DF93CF931F930F93FF92C92FA9
:10191000DD2788232AF02197660F771F881FDAF7C3
:1019200020E030E040E85FEB9FE3883920F0803E24
:1019300030F021968F771EDEE6E2F0E003C01ADE7B
:10194000E3E5F0E0A1D1062F172F6C2F7D2FC82FD4
:10195000D92FFB2E6F5771097595771F880B990B3F
:1019600012DF28E132E741E35FE317D0AF2D202FEC
:10197000312F4C2F5D2FFF900F911F91CF91DF9151
:101980000ADE77CF0AD075CF66DF28F06BDF18F05C
:10199000952309F057CF5CCFA0CF7CDFA8F3992324
:1019A000D9F35523C9F3950F50E0551FAA27EE2709
:1019B000FF27BB2700240894679520F4E20FF31F4C
:1019C000B41F0A1E220F331F441FAA1F6695A9F7D2
:1019D000779530F4F30FB41F0A1E121E08F46395B6
:1019E000330F441FAA1F221F769599F7879520F47D
:1019F000B40F0A1E121E631F440FAA1F221F331F9B
:101A00008695A9F7862F712D602D11249F57504080
:101A10008AF0E1F088234AF0EE0FFF1FBB1F661F1C
:101A2000771F881F91505040A9F79E3F510570F0D5
:101A300009CF53CF5F3FECF3983EDCF38695779563
:101A40006795B795F795E7959F5FC1F7FE2B880FD0
:101A5000911D9695879597F90895E42FF52FEE0F30
:101A6000FF1F309621053105A1F16115710561F463
:101A70008038BFE39B0751F168949038810561F08D
:101A80008038BFEF9B0741F099234AF5FF3FE105FE
:101A90003105210519F1E8940894E795A22FB32F99
:101AA000AA2329F4AB2FBE2FF85FD0F310C0FF5F3D
:101AB00070F4A695E0F7F73950F019F0FF3A38F4D2
:101AC0009F779F930CD00F9007FC905808953EF09D
:101AD000BFCE60E070E080E89FE308954FE79F7716
:101AE0005F934F933F932F9308DF2F913F914F9137
:101AF0005F9148DF6DC0D6DEE0F09E37D8F09639B2
:101B0000B8F49E3848F4672F782F8827985FF9CF6C
:101B100086957795679593959539D0F3B62FB170E3
:101B20006B0F711D811D20F48795779567959395AF
:101B30007BC095C0D2CE11F40EF48ACE90C0B2DE36
:101B4000D0F39923D9F3CEF39F57550B87FF95D048
:101B50000024A0E640EA202D312D80585695979517
:101B600028F4805C660F771F881F20F02617370740
:101B7000480730F4621B730B840B202931294A2B50
:101B8000A69517940794202531254A2758F7660F04
:101B9000771F881F20F026173707480730F4620B9D
:101BA000730B840B200D311D411DA09581F7622F11
:101BB000732F842F9158880F9695879508951EDE70
:101BC000880B990B089519F40EF03CCE85CE40CECB
:101BD00069DEC8F39638C0F707F80F92E8942BE354
:101BE0003AEA48EB5FE7DBDE0F920F920F924DB7B8
:101BF0005EB70F92BFD0E0E8F0E046D04F915F9122
:101C0000EF91FF91E595EE1FFF1F49F0FE57E06849
:101C10004427EE0F441FFA95E1F74195550B76D016
:101C20000F9007FE68C00895882371F4772321F090
:101C30009850872B762F07C0662311F499270DC083
:101C40009051862B70E060E02AF09A95660F771F1E
:101C5000881FDAF7880F9695879597F908959F3F23
:101C600031F0915020F4879577956795B795880F57
:101C7000911D9695879597F9089591505040660F5C
:101C8000771F881FD2F70895DF93CF931F930F9389
:101C9000FF92EF92DF92E62EF72E082F192F68940D
:101CA00007C0DA2ECE2FDF2F78DEEC2FFD2FE89441
:101CB000C895A02D3196C895202D3196C895302D08
:101CC0003196C895402D3196C895502D31964EF3DA
:101CD000CE2FDF2F60DCEC2FFD2F2E2D3F2D402F40
:101CE000512FDA94F9F6DF90EF90FF900F911F914A
:101CF000CF91DF910895262F372F482F592F60E07D
:101D000070E080E89FE3A3CC9DCDA9CFCBDDE8F3C5
:101D10009923D9F3940F511DBBF39150504094F087
:101D200059F0882332F0660F771F881F915050407A
:101D3000C1F79E3F510544F7880F911D96958795F1
:101D400097F908955F3FACF0983E9CF0BB278695CD
:101D500077956795B79508F4B1609395C1F7BB0F78
:101D600058F711F460FFE8CF6F5F7F4F8F4F9F4FA1
:101D7000E3CFB3CDE42FF52FA82FB92FAA0FBB1FA8
:101D8000262F372F482F592FBF5728F422273327C4
:101D90004427507821C0B75188F4AB2F00244695D2
:101DA00037952795011CA395D2F3002069F0220FE7
:101DB000331F441FB395DAF30FD0DBCB61307105CD
:101DC000A0E88A07B94640F4262F372F482F592F0D
:101DD0006627772788279078309621F020833183F3
:101DE000428353830895F8944EC0DC01CB01FC017B
:101DF000E199FECF06C0FFBBEEBBE09A31960DB273
:101E00000D9241505040B8F70895E199FECF9FBB25
:101E10008EBBE09A99278DB30895DC01CB0102C0F7
:101E20002D9105D041505040D8F70895262FE199C3
:101E3000FECF9FBB8EBB2DBB0FB6F894E29AE19A02
:101E40000FBE01960895991B79E004C0991F96175B
:101E500008F0961B881F7A95C9F780950895AA1BEC
:101E6000BB1B51E107C0AA1FBB1FA617B70710F085
:101E7000A61BB70B881F991F5A95A9F780959095B7
:0A1E8000BC01CD010895F894FFCFD6
:101E8A004D616E74656E202252455345542220706E
:101E9A00617261207265696E696369617220636F3C
:101EAA006E66696775726163696F6E000D0A5265C5
:101EBA00696E696369616E646F2E2E2E0D0A000DBC
:101ECA000A004C6973746F210D0A000000000000BB
:101EDA00000000000000000000C8420000C84200E4
:101EEA0000C842141414000102001122334455663A
:101EFA00778899AABBCCDDEEFF00112233445566E0
:101F0A00778899AABBCCDDEEFF00112233445566CF
:101F1A00778899AABBCCDDEEFF000000FFFFFF0027
:101F2A0000803F0000803F0000803F0000FF420029
:101F3A0000FF420000FF427DC3823F7DC3823F7D96
:101F4A00C3823F0000803F0000803F0000803F00C6
:101F5A000080400000804000008040000080BF00F8
:101F6A000080BF000080BFCCBAC342CCBAC342CC07
:101F7A00BAC3420000CC410000CC410000CC41B9B8
:101F8A00B9B9BFB9B9B9BFB9B9B9BF0000344200CC
:101F9A0000344200003442FFFFFF0000003C0AFF09
:101FAA00FFFF0D46616E20436F6E74726F6C6C6535
:101FBA0072204D4B31202D2056000D0A003C0D0A8F
:101FCA00004F4B3C0D0A0045523C0D0A0043453C6C
:101FDA000D0A00312E302E3737322E32333432008A
:00000001FF
